{
  "contractName": "CityVote",
  "abi": [
    {
      "inputs": [],
      "stateMutability": "nonpayable",
      "type": "constructor"
    },
    {
      "anonymous": false,
      "inputs": [
        {
          "indexed": false,
          "internalType": "string",
          "name": "name",
          "type": "string"
        }
      ],
      "name": "cityadded",
      "type": "event"
    },
    {
      "anonymous": false,
      "inputs": [
        {
          "indexed": true,
          "internalType": "uint256",
          "name": "id",
          "type": "uint256"
        },
        {
          "indexed": false,
          "internalType": "address",
          "name": "voter",
          "type": "address"
        }
      ],
      "name": "voted",
      "type": "event"
    },
    {
      "inputs": [
        {
          "internalType": "address",
          "name": "",
          "type": "address"
        }
      ],
      "name": "admins",
      "outputs": [
        {
          "internalType": "bool",
          "name": "",
          "type": "bool"
        }
      ],
      "stateMutability": "view",
      "type": "function"
    },
    {
      "inputs": [
        {
          "internalType": "uint256",
          "name": "",
          "type": "uint256"
        }
      ],
      "name": "cities",
      "outputs": [
        {
          "internalType": "string",
          "name": "_name",
          "type": "string"
        },
        {
          "internalType": "uint256",
          "name": "population",
          "type": "uint256"
        },
        {
          "internalType": "string",
          "name": "_address",
          "type": "string"
        },
        {
          "internalType": "uint256",
          "name": "votecount",
          "type": "uint256"
        },
        {
          "internalType": "uint256",
          "name": "id",
          "type": "uint256"
        }
      ],
      "stateMutability": "view",
      "type": "function"
    },
    {
      "inputs": [
        {
          "internalType": "uint256",
          "name": "",
          "type": "uint256"
        }
      ],
      "name": "countries",
      "outputs": [
        {
          "internalType": "string",
          "name": "",
          "type": "string"
        }
      ],
      "stateMutability": "view",
      "type": "function"
    },
    {
      "inputs": [
        {
          "internalType": "string",
          "name": "name",
          "type": "string"
        },
        {
          "internalType": "uint256",
          "name": "_pop",
          "type": "uint256"
        }
      ],
      "name": "addCity",
      "outputs": [],
      "stateMutability": "nonpayable",
      "type": "function"
    },
    {
      "inputs": [
        {
          "internalType": "uint256",
          "name": "id",
          "type": "uint256"
        }
      ],
      "name": "vote",
      "outputs": [],
      "stateMutability": "nonpayable",
      "type": "function"
    },
    {
      "inputs": [
        {
          "internalType": "uint256",
          "name": "id",
          "type": "uint256"
        }
      ],
      "name": "getCitydata",
      "outputs": [
        {
          "internalType": "string",
          "name": "name",
          "type": "string"
        },
        {
          "internalType": "uint256",
          "name": "votecount",
          "type": "uint256"
        }
      ],
      "stateMutability": "view",
      "type": "function"
    },
    {
      "inputs": [
        {
          "internalType": "uint256",
          "name": "id",
          "type": "uint256"
        }
      ],
      "name": "getVote",
      "outputs": [
        {
          "internalType": "uint256",
          "name": "votecount",
          "type": "uint256"
        }
      ],
      "stateMutability": "view",
      "type": "function"
    }
  ],
  "bytecode": "0x60806040523480156200001157600080fd5b50600080819055506001600460003373ffffffffffffffffffffffffffffffffffffffff1673ffffffffffffffffffffffffffffffffffffffff16815260200190815260200160002060006101000a81548160ff021916908315150217905550620000ba6040518060400160405280600381526020017f6b746d00000000000000000000000000000000000000000000000000000000008152506101c86200010960201b60201c565b620001036040518060400160405280600381526020017f706b7200000000000000000000000000000000000000000000000000000000008152506103156200010960201b60201c565b6200055f565b600460003373ffffffffffffffffffffffffffffffffffffffff1673ffffffffffffffffffffffffffffffffffffffff16815260200190815260200160002060009054906101000a900460ff1662000198576040517f08c379a00000000000000000000000000000000000000000000000000000000081526004016200018f906200038b565b60405180910390fd5b8160026000805481526020019081526020016000206000019080519060200190620001c592919062000254565b50600054600260008054815260200190815260200160002060040181905550806002600080548152602001908152602001600020600101819055506001600054620002119190620003e6565b6000819055507f10446ac7f7fecf6ec9eb71f78f015178749e89c3b7d5b6ef3837ff1b35c76e6582604051620002489190620004d6565b60405180910390a15050565b828054620002629062000529565b90600052602060002090601f016020900481019282620002865760008555620002d2565b82601f10620002a157805160ff1916838001178555620002d2565b82800160010185558215620002d2579182015b82811115620002d1578251825591602001919060010190620002b4565b5b509050620002e19190620002e5565b5090565b5b8082111562000300576000816000905550600101620002e6565b5090565b600082825260208201905092915050565b7f4f6e6c792061646d696e2063616e2061636365737320746869732066756e637460008201527f696f6e0000000000000000000000000000000000000000000000000000000000602082015250565b60006200037360238362000304565b9150620003808262000315565b604082019050919050565b60006020820190508181036000830152620003a68162000364565b9050919050565b6000819050919050565b7f4e487b7100000000000000000000000000000000000000000000000000000000600052601160045260246000fd5b6000620003f382620003ad565b91506200040083620003ad565b9250827fffffffffffffffffffffffffffffffffffffffffffffffffffffffffffffffff03821115620004385762000437620003b7565b5b828201905092915050565b600081519050919050565b60005b838110156200046e57808201518184015260208101905062000451565b838111156200047e576000848401525b50505050565b6000601f19601f8301169050919050565b6000620004a28262000443565b620004ae818562000304565b9350620004c08185602086016200044e565b620004cb8162000484565b840191505092915050565b60006020820190508181036000830152620004f2818462000495565b905092915050565b7f4e487b7100000000000000000000000000000000000000000000000000000000600052602260045260246000fd5b600060028204905060018216806200054257607f821691505b60208210811415620005595762000558620004fa565b5b50919050565b610e98806200056f6000396000f3fe608060405234801561001057600080fd5b506004361061007d5760003560e01c8063429b62e51161005b578063429b62e5146100ff5780635a55c1f01461012f5780636a51b9181461015f578063b7e80cbd146101935761007d565b80630121b93f1461008257806308e9daa51461009e5780630d19f590146100ce575b600080fd5b61009c60048036038101906100979190610816565b6101af565b005b6100b860048036038101906100b39190610816565b6102fb565b6040516100c591906108dc565b60405180910390f35b6100e860048036038101906100e39190610816565b61039b565b6040516100f692919061090d565b60405180910390f35b6101196004803603810190610114919061099b565b610461565b60405161012691906109e3565b60405180910390f35b61014960048036038101906101449190610816565b610481565b60405161015691906109fe565b60405180910390f35b61017960048036038101906101749190610816565b6104a1565b60405161018a959493929190610a19565b60405180910390f35b6101ad60048036038101906101a89190610baf565b6105e7565b005b600360003373ffffffffffffffffffffffffffffffffffffffff1673ffffffffffffffffffffffffffffffffffffffff16815260200190815260200160002060009054906101000a900460ff161561023c576040517f08c379a000000000000000000000000000000000000000000000000000000000815260040161023390610c57565b60405180910390fd5b60026000828152602001908152602001600020600301600081548092919061026390610ca6565b91905055506001600360003373ffffffffffffffffffffffffffffffffffffffff1673ffffffffffffffffffffffffffffffffffffffff16815260200190815260200160002060006101000a81548160ff021916908315150217905550807f5277b4aef6ff52b684d3331f3dc11a365dc48e3f9eb6a8ed8015e97ae4c3a751336040516102f09190610cfe565b60405180910390a250565b6001602052806000526040600020600091509050805461031a90610d48565b80601f016020809104026020016040519081016040528092919081815260200182805461034690610d48565b80156103935780601f1061036857610100808354040283529160200191610393565b820191906000526020600020905b81548152906001019060200180831161037657829003601f168201915b505050505081565b606060006002600084815260200190815260200160002060000160026000858152602001908152602001600020600301548180546103d890610d48565b80601f016020809104026020016040519081016040528092919081815260200182805461040490610d48565b80156104515780601f1061042657610100808354040283529160200191610451565b820191906000526020600020905b81548152906001019060200180831161043457829003601f168201915b5050505050915091509150915091565b60046020528060005260406000206000915054906101000a900460ff1681565b600060026000838152602001908152602001600020600301549050919050565b60026020528060005260406000206000915090508060000180546104c490610d48565b80601f01602080910402602001604051908101604052809291908181526020018280546104f090610d48565b801561053d5780601f106105125761010080835404028352916020019161053d565b820191906000526020600020905b81548152906001019060200180831161052057829003601f168201915b50505050509080600101549080600201805461055890610d48565b80601f016020809104026020016040519081016040528092919081815260200182805461058490610d48565b80156105d15780601f106105a6576101008083540402835291602001916105d1565b820191906000526020600020905b8154815290600101906020018083116105b457829003601f168201915b5050505050908060030154908060040154905085565b600460003373ffffffffffffffffffffffffffffffffffffffff1673ffffffffffffffffffffffffffffffffffffffff16815260200190815260200160002060009054906101000a900460ff16610673576040517f08c379a000000000000000000000000000000000000000000000000000000000815260040161066a90610dec565b60405180910390fd5b816002600080548152602001908152602001600020600001908051906020019061069e929190610729565b506000546002600080548152602001908152602001600020600401819055508060026000805481526020019081526020016000206001018190555060016000546106e89190610e0c565b6000819055507f10446ac7f7fecf6ec9eb71f78f015178749e89c3b7d5b6ef3837ff1b35c76e658260405161071d91906108dc565b60405180910390a15050565b82805461073590610d48565b90600052602060002090601f016020900481019282610757576000855561079e565b82601f1061077057805160ff191683800117855561079e565b8280016001018555821561079e579182015b8281111561079d578251825591602001919060010190610782565b5b5090506107ab91906107af565b5090565b5b808211156107c85760008160009055506001016107b0565b5090565b6000604051905090565b600080fd5b600080fd5b6000819050919050565b6107f3816107e0565b81146107fe57600080fd5b50565b600081359050610810816107ea565b92915050565b60006020828403121561082c5761082b6107d6565b5b600061083a84828501610801565b91505092915050565b600081519050919050565b600082825260208201905092915050565b60005b8381101561087d578082015181840152602081019050610862565b8381111561088c576000848401525b50505050565b6000601f19601f8301169050919050565b60006108ae82610843565b6108b8818561084e565b93506108c881856020860161085f565b6108d181610892565b840191505092915050565b600060208201905081810360008301526108f681846108a3565b905092915050565b610907816107e0565b82525050565b6000604082019050818103600083015261092781856108a3565b905061093660208301846108fe565b9392505050565b600073ffffffffffffffffffffffffffffffffffffffff82169050919050565b60006109688261093d565b9050919050565b6109788161095d565b811461098357600080fd5b50565b6000813590506109958161096f565b92915050565b6000602082840312156109b1576109b06107d6565b5b60006109bf84828501610986565b91505092915050565b60008115159050919050565b6109dd816109c8565b82525050565b60006020820190506109f860008301846109d4565b92915050565b6000602082019050610a1360008301846108fe565b92915050565b600060a0820190508181036000830152610a3381886108a3565b9050610a4260208301876108fe565b8181036040830152610a5481866108a3565b9050610a6360608301856108fe565b610a7060808301846108fe565b9695505050505050565b600080fd5b600080fd5b7f4e487b7100000000000000000000000000000000000000000000000000000000600052604160045260246000fd5b610abc82610892565b810181811067ffffffffffffffff82111715610adb57610ada610a84565b5b80604052505050565b6000610aee6107cc565b9050610afa8282610ab3565b919050565b600067ffffffffffffffff821115610b1a57610b19610a84565b5b610b2382610892565b9050602081019050919050565b82818337600083830152505050565b6000610b52610b4d84610aff565b610ae4565b905082815260208101848484011115610b6e57610b6d610a7f565b5b610b79848285610b30565b509392505050565b600082601f830112610b9657610b95610a7a565b5b8135610ba6848260208601610b3f565b91505092915050565b60008060408385031215610bc657610bc56107d6565b5b600083013567ffffffffffffffff811115610be457610be36107db565b5b610bf085828601610b81565b9250506020610c0185828601610801565b9150509250929050565b7f416c726561647920766f74656400000000000000000000000000000000000000600082015250565b6000610c41600d8361084e565b9150610c4c82610c0b565b602082019050919050565b60006020820190508181036000830152610c7081610c34565b9050919050565b7f4e487b7100000000000000000000000000000000000000000000000000000000600052601160045260246000fd5b6000610cb1826107e0565b91507fffffffffffffffffffffffffffffffffffffffffffffffffffffffffffffffff821415610ce457610ce3610c77565b5b600182019050919050565b610cf88161095d565b82525050565b6000602082019050610d136000830184610cef565b92915050565b7f4e487b7100000000000000000000000000000000000000000000000000000000600052602260045260246000fd5b60006002820490506001821680610d6057607f821691505b60208210811415610d7457610d73610d19565b5b50919050565b7f4f6e6c792061646d696e2063616e2061636365737320746869732066756e637460008201527f696f6e0000000000000000000000000000000000000000000000000000000000602082015250565b6000610dd660238361084e565b9150610de182610d7a565b604082019050919050565b60006020820190508181036000830152610e0581610dc9565b9050919050565b6000610e17826107e0565b9150610e22836107e0565b9250827fffffffffffffffffffffffffffffffffffffffffffffffffffffffffffffffff03821115610e5757610e56610c77565b5b82820190509291505056fea264697066735822122048e58e4e2f129e830dc324a7d94969f9c3041c5f8450941474669ab16147798564736f6c634300080a0033",
  "immutableReferences": {},
  "source": "pragma solidity 0.8.10;\r\n\r\ncontract CityVote{\r\n\r\n    struct City{\r\n        string _name;\r\n        uint256 population;\r\n        string _address;\r\n        uint256 votecount;\r\n        uint256 id;\r\n    }\r\n    uint256 counter;\r\n\r\n    mapping(uint256=>string) public  countries;\r\n    mapping(uint256 => City) public cities;\r\n    mapping(address=>bool) hasvoted;\r\n    mapping(address =>bool)  public admins;\r\n\r\nconstructor(){\r\n    counter =0;\r\n    admins[msg.sender] =true;\r\n    addCity(\"ktm\",456);\r\n    addCity(\"pkr\",789);\r\n}\r\nmodifier checkadmin(){\r\n        require(admins[msg.sender],\"Only admin can access this function\");\r\n        _;\r\n\r\n}\r\n\r\nevent cityadded( string  name);\r\nevent voted(uint256 indexed id,address voter);\r\n\r\nfunction addCity(string memory name, uint256 _pop) checkadmin public{\r\n    // require(admins[msg.sender],\"Only admin can access this function\");\r\n    cities[counter]._name = name;\r\n    cities[counter].id = counter;\r\n    cities[counter].population = _pop;\r\n    counter = counter+1;\r\n    emit cityadded(name);\r\n\r\n}\r\n    function vote(uint256 id)public{\r\n        require(!hasvoted[msg.sender],\"Already voted\");\r\n        cities[id].votecount ++;\r\n        hasvoted[msg.sender] = true;\r\n        emit voted(id,msg.sender);\r\n}\r\nfunction getCitydata(uint256 id) public view returns(string memory name,uint256 votecount){\r\n   return( cities[id]._name,cities[id].votecount);\r\n}\r\nfunction getVote(uint256 id) public view returns(uint256 votecount){\r\n    return(cities[id].votecount);\r\n}\r\n\r\n \r\n\r\n}",
  "sourcePath": "D:/Rumsan/Fellowship/Fellowship-assignments/testcases/contracts/CityVote.sol",
  "compiler": {
    "name": "solc",
    "version": "0.8.10+commit.fc410830.Emscripten.clang"
  },
  "schemaVersion": "3.3.4",
  "updatedAt": "2023-03-28T11:23:42.309Z",
  "devdoc": {
    "kind": "dev",
    "methods": {},
    "version": 1
  },
  "userdoc": {
    "kind": "user",
    "methods": {},
    "version": 1
  }
}